{
  "contractName": "Splitter",
  "abi": [
    {
      "inputs": [],
      "payable": false,
      "stateMutability": "nonpayable",
      "type": "constructor"
    },
    {
      "constant": true,
      "inputs": [],
      "name": "contractBalance",
      "outputs": [
        {
          "internalType": "uint256",
          "name": "",
          "type": "uint256"
        }
      ],
      "payable": false,
      "stateMutability": "view",
      "type": "function"
    },
    {
      "constant": false,
      "inputs": [
        {
          "internalType": "address",
          "name": "_receiver1",
          "type": "address"
        },
        {
          "internalType": "address",
          "name": "_receiver2",
          "type": "address"
        }
      ],
      "name": "splitFunds",
      "outputs": [],
      "payable": true,
      "stateMutability": "payable",
      "type": "function"
    }
  ],
  "bytecode": "0x608060405234801561001057600080fd5b5060f38061001f6000396000f3fe60806040526004361060265760003560e01c80632accf2f714602b5780638b7afe2e14608c575b600080fd5b608a60048036036040811015603f57600080fd5b81019080803573ffffffffffffffffffffffffffffffffffffffff169060200190929190803573ffffffffffffffffffffffffffffffffffffffff16906020019092919050505060b4565b005b348015609757600080fd5b50609e60b8565b6040518082815260200191505060405180910390f35b5050565b6000548156fea265627a7a723158205f804f33e7fe8410af3e46e2cd4cfdd53aa487f1980f9cdd9dc84ec61b64808064736f6c63430005100032",
  "source": "//SPDX-License-Identifier: MIT\npragma solidity >=0.5.15;\n\ncontract Splitter {\n    uint256 public contractBalance;\n    mapping(address => uint256) accountBalances;\n\n    constructor() public {}\n\n    function splitFunds(address _receiver1, address _receiver2)\n        public\n        payable\n    {}\n}\n",
  "sourcePath": "/home/spin/projects/b9/Splitter/contracts/Splitter.sol",
  "compiler": {
    "name": "solc",
    "version": "0.5.16+commit.9c3226ce.Emscripten.clang"
  },
  "schemaVersion": "3.3.1",
  "updatedAt": "2020-10-27T15:46:06.060Z",
  "devdoc": {
    "methods": {}
  },
  "userdoc": {
    "methods": {}
  }
}