{
  "contractName": "Splitter",
  "abi": [
    {
      "inputs": [],
      "payable": false,
      "stateMutability": "nonpayable",
      "type": "constructor"
    },
    {
      "anonymous": false,
      "inputs": [
        {
          "indexed": false,
          "internalType": "address",
          "name": "withdrawer",
          "type": "address"
        },
        {
          "indexed": false,
          "internalType": "uint256",
          "name": "withdrawn",
          "type": "uint256"
        }
      ],
      "name": "LogFundWithdrawn",
      "type": "event"
    },
    {
      "anonymous": false,
      "inputs": [
        {
          "indexed": false,
          "internalType": "address",
          "name": "sender",
          "type": "address"
        },
        {
          "indexed": false,
          "internalType": "address",
          "name": "receiver1",
          "type": "address"
        },
        {
          "indexed": false,
          "internalType": "address",
          "name": "receiver2",
          "type": "address"
        },
        {
          "indexed": false,
          "internalType": "uint256",
          "name": "sentAmount",
          "type": "uint256"
        }
      ],
      "name": "LogSplitSuccessful",
      "type": "event"
    },
    {
      "constant": true,
      "inputs": [],
      "name": "contractBalance",
      "outputs": [
        {
          "internalType": "uint256",
          "name": "",
          "type": "uint256"
        }
      ],
      "payable": false,
      "stateMutability": "view",
      "type": "function"
    },
    {
      "constant": false,
      "inputs": [
        {
          "internalType": "address",
          "name": "_receiver1",
          "type": "address"
        },
        {
          "internalType": "address",
          "name": "_receiver2",
          "type": "address"
        }
      ],
      "name": "splitFunds",
      "outputs": [],
      "payable": true,
      "stateMutability": "payable",
      "type": "function"
    },
    {
      "constant": false,
      "inputs": [],
      "name": "withdraw",
      "outputs": [],
      "payable": false,
      "stateMutability": "nonpayable",
      "type": "function"
    }
  ],
  "bytecode": "0x608060405234801561001057600080fd5b50610792806100206000396000f3fe6080604052600436106100345760003560e01c80632accf2f7146100395780633ccfd60b1461009d5780638b7afe2e146100b4575b600080fd5b61009b6004803603604081101561004f57600080fd5b81019080803573ffffffffffffffffffffffffffffffffffffffff169060200190929190803573ffffffffffffffffffffffffffffffffffffffff1690602001909291905050506100df565b005b3480156100a957600080fd5b506100b2610577565b005b3480156100c057600080fd5b506100c9610736565b6040518082815260200191505060405180910390f35b6000349050600381101561015b576040517f08c379a00000000000000000000000000000000000000000000000000000000081526004018080602001828103825260168152602001807f496e76616c6964206d696e696d756d20616d6f756e740000000000000000000081525060200191505060405180910390fd5b600073ffffffffffffffffffffffffffffffffffffffff168373ffffffffffffffffffffffffffffffffffffffff16141580156101c55750600073ffffffffffffffffffffffffffffffffffffffff168273ffffffffffffffffffffffffffffffffffffffff1614155b61021a576040517f08c379a000000000000000000000000000000000000000000000000000000000815260040180806020018281038252602181526020018061073d6021913960400191505060405180910390fd5b60008060006002848161022957fe5b061415610242576002838161023a57fe5b0491506102e5565b6002600184038161024f57fe5b0491506000600160003373ffffffffffffffffffffffffffffffffffffffff1673ffffffffffffffffffffffffffffffffffffffff168152602001908152602001600020549050600033905060018201600160008373ffffffffffffffffffffffffffffffffffffffff1673ffffffffffffffffffffffffffffffffffffffff1681526020019081526020016000208190555050505b8260008082825401925050819055506000600160008773ffffffffffffffffffffffffffffffffffffffff1673ffffffffffffffffffffffffffffffffffffffff168152602001908152602001600020549050828101600160008873ffffffffffffffffffffffffffffffffffffffff1673ffffffffffffffffffffffffffffffffffffffff168152602001908152602001600020819055506000600160008773ffffffffffffffffffffffffffffffffffffffff1673ffffffffffffffffffffffffffffffffffffffff168152602001908152602001600020549050838101600160008873ffffffffffffffffffffffffffffffffffffffff1673ffffffffffffffffffffffffffffffffffffffff16815260200190815260200160002081905550821561049b576000600160003373ffffffffffffffffffffffffffffffffffffffff1673ffffffffffffffffffffffffffffffffffffffff16815260200190815260200160002054905060018101600160003373ffffffffffffffffffffffffffffffffffffffff1673ffffffffffffffffffffffffffffffffffffffff16815260200190815260200160002081905550505b7f0cb3f5fe87def8ac03b33b3cb4f2a4a4501da00f9db6e6d6fa8accc9a80f2e4533888888604051808573ffffffffffffffffffffffffffffffffffffffff1673ffffffffffffffffffffffffffffffffffffffff1681526020018473ffffffffffffffffffffffffffffffffffffffff1673ffffffffffffffffffffffffffffffffffffffff1681526020018373ffffffffffffffffffffffffffffffffffffffff1673ffffffffffffffffffffffffffffffffffffffff16815260200182815260200194505050505060405180910390a150505050505050565b6000600160003373ffffffffffffffffffffffffffffffffffffffff1673ffffffffffffffffffffffffffffffffffffffff16815260200190815260200160002054905060008111610631576040517f08c379a00000000000000000000000000000000000000000000000000000000081526004018080602001828103825260148152602001807f4e6f2066756e647320746f20776974686472617700000000000000000000000081525060200191505060405180910390fd5b6000600160003373ffffffffffffffffffffffffffffffffffffffff1673ffffffffffffffffffffffffffffffffffffffff168152602001908152602001600020819055503373ffffffffffffffffffffffffffffffffffffffff166108fc829081150290604051600060405180830381858888f193505050501580156106bc573d6000803e3d6000fd5b5080600054036000819055507fe4c67e54de8c409d7724404ab1324fc77d05aa5c7b5b146821f6623dc9dc98693382604051808373ffffffffffffffffffffffffffffffffffffffff1673ffffffffffffffffffffffffffffffffffffffff1681526020018281526020019250505060405180910390a150565b6000548156fe43616e27742073706c6974206d6f6e657920746f206e756c6c2061646472657373a265627a7a72315820eebe3722d9d646a130c97987f5966ff01e787ec4ba0f5de246e7a42dd373935864736f6c63430005100032",
  "source": "//SPDX-License-Identifier: MIT\npragma solidity >=0.5.15;\n\n/*\n@title Splitter\n@dev split balance of sender into two & make funds available for withdrawal\n*/\ncontract Splitter {\n    uint256 public contractBalance;\n    mapping(address => uint256) accountBalances;\n\n    event LogSplitSuccessful(\n        address sender,\n        address receiver1,\n        address receiver2,\n        uint256 sentAmount\n    );\n    event LogFundWithdrawn(address withdrawer, uint256 withdrawn);\n\n    constructor() public {}\n\n    /*\n     @dev split funds and record in storage\n     */\n    function splitFunds(address _receiver1, address _receiver2) public payable {\n        uint256 _amount = msg.value;\n        require(_amount >= 3, \"Invalid minimum amount\");\n        require(\n            (_receiver1 != address(0) && _receiver2 != address(0)),\n            \"Can't split money to null address\"\n        );\n\n        uint256 splitAmount;\n        bool paySenderOneWei;\n\n        if (_amount % 2 == 0) {\n            splitAmount = _amount / 2;\n        } else {\n            splitAmount = (_amount - 1) / 2;\n            //Fund sender one wei\n            uint256 sender_before = accountBalances[msg.sender];\n            address sender = msg.sender;\n            accountBalances[sender] = sender_before + 1;\n        }\n\n        contractBalance += _amount;\n\n        uint256 balanceBefore_1 = accountBalances[_receiver1];\n        accountBalances[_receiver1] = balanceBefore_1 + splitAmount;\n\n        uint256 balanceBefore_2 = accountBalances[_receiver2];\n        accountBalances[_receiver2] = balanceBefore_2 + splitAmount;\n\n        if (paySenderOneWei) {\n            uint256 sender_before = accountBalances[msg.sender];\n            accountBalances[msg.sender] = sender_before + 1;\n        }\n\n        emit LogSplitSuccessful(msg.sender, _receiver1, _receiver2, _amount);\n    }\n\n    /*\n    @dev Allow fund receiver to withdraw\n    */\n    function withdraw() public {\n        uint256 withdrawerBalance = accountBalances[msg.sender];\n        require(withdrawerBalance > 0, \"No funds to withdraw\");\n\n        //clear account balance entry\n        accountBalances[msg.sender] = 0;\n        msg.sender.transfer(withdrawerBalance);\n        contractBalance = contractBalance - withdrawerBalance;\n        emit LogFundWithdrawn(msg.sender, withdrawerBalance);\n    }\n}\n",
  "sourcePath": "/home/spin/projects/b9/Splitter/contracts/Splitter.sol",
  "compiler": {
    "name": "solc",
    "version": "0.5.16+commit.9c3226ce.Emscripten.clang"
  },
  "schemaVersion": "3.3.1",
  "updatedAt": "2020-10-27T16:28:52.286Z",
  "devdoc": {
    "methods": {}
  },
  "userdoc": {
    "methods": {}
  }
}